:020000041000EA
:1000000000B5324B212058609868022188439860DF
:10001000D860186158612E4B002199600221596106
:100020000121F02299502B49196001219960352056
:1000300000F044F80222904214D00621196600F024
:1000400034F8196E01211966002018661A6600F04E
:100050002CF8196E196E196E052000F02FF8012189
:100060000842F9D1002199601B49196000215960AB
:100070001A491B48016001219960EB211966A021F2
:10008000196600F012F800219960164914480160C1
:100090000121996001BC002800D000471248134993
:1000A000086003C880F30888084703B5996A0420EC
:1000B0000142FBD001200142F8D103BD02B5186610
:1000C0001866FFF7F2FF186E186E02BD00000240BE
:1000D000000000180000070000035F00212200005C
:1000E000F4000018222000A00001001008ED00E03C
:1000F00000000000000000000000000074B24E7A12
:1001000000200420F7010010C3010010C5010010F9
:10011000C1010010C1010010C1010010C101001097
:10012000C1010010C1010010C1010010C701001081
:10013000C1010010C1010010C9010010CB01001065
:10014000CD010010CD010010CD010010CD01001037
:10015000CD010010CD010010CD010010CD01001027
:10016000CD010010CD010010CD010010CD01001017
:10017000CD010010CD010010CD010010CD01001007
:10018000CD010010CD010010CD010010CD010010F7
:10019000CD010010CD010010CD010010CD010010E7
:1001A000CD010010CD010010CD010010CD010010D7
:1001B000CD010010CD010010CD010010CD010010C7
:1001C00000BE00BE00BE00BE00BE00BEEFF3058054
:1001D000103800BEF2EB8871D09300101494001018
:1001E0003402001090A31AE700201F49086006C8D7
:1001F00081F3088810471D48006800282FD10DA4FE
:100200000ECC002902D000F012F8F9E71849194A7B
:10021000002000E001C19142FCD1174988471749ED
:1002200088471749884700BEFDE701C901C29A42C5
:10023000FBD3704714940010C00000205818002011
:10024000ACAB00100000042000000420ACAB001098
:10025000001004200010042000000000704709482E
:1002600004F0B6FC0047000008ED00E0000000D0FC
:10027000581800203C260020B53300100903001058
:10028000D93400105756000006005250ABB36053EB
:100290009091001006005250861C0302A09100109D
:1002A000060052505422A29DA89100100500525001
:1002B000DE65F468ACAB0010F8B5C04606480749E7
:1002C000091A8B10C90FC91810B5491003D0044B77
:1002D000002B00D0984710BD581800205818002057
:1002E00000000000054B10B5002B03D00449054861
:1002F00000E000BFFFF7E2FF10BDC04600000000B5
:10030000E0220020E08C0010F0B5DE46454657465E
:100310004E46E0B58BB005F073FD8349834807F086
:1003200005FF152304930393013B0293023B0193C2
:10033000013B10227D49009309A8023300F00AF91D
:100340000400192001F0AAFBD02580232D069B0470
:1003500016206B6201F0A2FB8023DB03AB6200225C
:100360000121162001F082FB099800F079F90021A3
:10037000099800F019FC0021099800F0EDFD6C4986
:10038000099800F0D7FB96210998090100F016FBA7
:100390006849099800F0C0FA06221021099800F077
:1003A00051FB4021099801F095FA8021099801F04C
:1003B00065F80221099800F07BFE69465E4B1A88B9
:1003C0000A8422216A469B785218137008A90322D6
:1003D000099801F0E5F90121099801F06DF98621EC
:1003E000099801F0A3F90421099801F0F3F802211A
:1003F000099801F0B5F8E421099800F01FFE0421E6
:10040000099800F0D1FB002C00D087E0192230239E
:100410006A4413706F212F3B099800F035F907AB40
:1004200099464A46454B1A271380454B1B259B4648
:10043000444B01229A46D0231B06984643465B68EC
:10044000414E9B0D09986F446D441A4262D01421AD
:1004500000F02EFE02234A460021099800F014F90C
:100460000C21099800F0A0FB802342469B045361B5
:1004700000233B703A000821099800F003FA3B780A
:10048000002BF7D0584605F00DFC0124E1B2012302
:100490002A00099800F0B4F9210030002A780134CC
:1004A00005F0A2FC502CF1D101232A005A21099811
:1004B00000F0A6F92978504605F096FC2A000123A1
:1004C0005C21099800F09CF92978204805F08CFC03
:1004D0000A2005F09BFB0421099800F065FB8024AD
:1004E000322002F0ADF94346A40432209C6102F0B0
:1004F000A7F9434632205C6102F0A2F94346144852
:100500009C6102F09DF9434601225B6809989B0DAE
:100510001A429CD1002100F0CBFD9BE7200001F0A6
:100520004BFA01F04FFA71E740420F0000C0034060
:100530001534000093030000188D001002450000E0
:10054000E08C0010008D0010F08C00100C8D00105D
:10055000B80B0000F0B5DE4657464E460125C0B543
:10056000060082B010208B469246994605F01CFA90
:100570002B008268D02493402406070030600021BD
:100580006361642002F04AF92A00BB6805209A40A2
:10059000A26102F055F95A46336850461A600A9A29
:1005A00001215A600C9A9A602C4ADA6001F046FAEE
:1005B0000B98012101F042FA0121484601F03EFA70
:1005C0000A9801F06BFA2B000A9A0A2093406362A2
:1005D000636102F035F90C9801F060FA2B000C9A77
:1005E000366893406362A3616B46D91D10230B707C
:1005F0007368C046C046C0462A009A40A261C04601
:10060000C046C0460122306808F02AFB6A4607004F
:10061000012300213068063208F0F2FA7368C04600
:10062000C046C0469D406561C046C046C046C01930
:10063000C0B202280CD16B469B790020013BDBB293
:10064000FD2B08D802B0E0BCBB46B246A946F0BDBF
:1006500003204042F6E70238F4E7C046040D010AE1
:1006600070B5012423008268D02693400500360629
:1006700073610021642002F0D1F8AB6805209C4032
:10068000B46102F0DDF870BDF0B5CE46474680B5E6
:1006900083B01C006B460500D81D80235B420B43D2
:1006A000037091466B68C046C046C04601273A00B9
:1006B0009A401300D022120690469361C046C0466D
:1006C000C04601220100286808F0CAFA220006008C
:1006D0004946286808F0C4FA6B68C046C046C04660
:1006E0009F4043465F61C046C046C0460134301853
:1006F000201A44426041032440422040033803B0A2
:10070000C0BCB946B046F0BDF0B5D6464F464646E9
:10071000C0B59A4682B07F2314006A460B40D3715D
:10072000050089464368C046C046C04601273A00D6
:100730009A401300D022120690469361C046C046EC
:10074000C0466B460122D91D006808F089FA6A4646
:100750000600012300212868063208F051FA6B6870
:10076000C046C046C0463A009A4013004246536114
:10077000C046C046C0468619F6B2022E3CD16B4632
:100780009979534699431C406B460C4380219C71D8
:100790004B46494219436B46D9716B68C046C04607
:1007A000C0463A009A40130042469361C046C04694
:1007B000C0466B460122D91D286808F051FA6B46E5
:1007C0000400991D0122286808F04AFA6B68C046A7
:1007D000C046C0469F4043465F61C046C046C046D3
:1007E00020180238441EA0414042B04302B0E0BC91
:1007F000BA46B146A846F0BD03204042F6E7C046DF
:10080000F0B5CE46474680B583B01C006B46050068
:10081000D81D7F230B40037091466B68C046C046CD
:10082000C046012632009A401300D022120690469C
:100830009361C046C046C04601220100286808F006
:100840000FFA230007004A460021286808F0D8F96B
:100850006B68C046C046C0469E4043465E61C04687
:10086000C046C046C019013440B2001B4342584143
:10087000032340421840033803B0C0BCB946B04619
:10088000F0BDC046F0B54F46D6464646C0B582B02C
:100890006B460D00D91D282307000B701400436818
:1008A000C046C046C046012290469A401300D0225E
:1008B000120692469361C046C046C04601220068B7
:1008C00008F0CEF96B469E1D8146012332000021BF
:1008D000386808F095F97B68C046C046C046424675
:1008E0009A40130052465361C046C046C046484431
:1008F000C0B2023831784342584103230D40691E8B
:100900008D41404218400338257002B0E0BCBA4621
:10091000B146A846F0BDC046F0B5C6460500480140
:1009200000B5401A8301181AC000401882B03D215A
:10093000800104F0A3F904F079FC00221E4B04F0BE
:10094000E1FB04F0B3FC01AE030C3370030A7370D7
:100950006B46D91C8723B0700B706B68C046C046CD
:10096000C04601273A009A401300D0221206904652
:100970009361C046C046C0460122286808F070F95D
:10098000032204003100286808F06AF96B68C04649
:10099000C046C0469F4043465F61C046C046C04611
:1009A0002418043C60426041032440422040033844
:1009B00002B080BCB846F0BD0000E03FF0B50500D5
:1009C00083B008003D2104F059F904F02FFC002207
:1009D0001B4B04F097FB04F069FC6A4683049B0EF2
:1009E00013718523D11C0B7050716B68C046C046D3
:1009F000C04601263200D0279A403F06BA61C04661
:100A0000C046C0460122286808F02AF902220400E4
:100A100001A9286808F024F96B68C046C046C046A2
:100A20009E407E61C046C046C046201803384442FE
:100A30006041032440422040033803B0F0BDC0466B
:100A40000000E03FF0B50724CE4647461440182288
:100A500080B50A4083B0914619236A460500D371D8
:100A60004368C046C046C04601273A009A4013007A
:100A7000D022120690469361C046C046C0466B46DF
:100A80000122D91D006808F0EBF86A460600012330
:100A900000212868063208F0B3F86B68C046C046EB
:100AA000C0463A009A40130042465361C046C046D1
:100AB000C0468619F6B2022E39D16B4699791F23AA
:100AC00099434B460B431C436B466A469C719923E2
:100AD000D3716B68C046C046C0463A009A401300C6
:100AE00042469361C046C046C0466B460122D91DAE
:100AF000286808F0B5F86B460400991D01222868A3
:100B000008F0AEF86B68C046C046C0469F404346FA
:100B10005F61C046C046C04620180238441EA0414E
:100B20004042B04303B0C0BCB946B046F0BD03205C
:100B30004042F7E7F0B5C64600B582B001AB49BA0E
:100B4000198098466B46D91C832305000B704368B7
:100B5000C046C046C04601263200D0279A403F0614
:100B6000BA61C046C046C0460122006808F078F865
:100B7000022204004146286808F072F86B68C046FB
:100B8000C046C0469E407E61C046C046C046201852
:100B9000033844426041032440422040033802B0FD
:100BA00080BCB846F0BDC046F0B54546DE46574667
:100BB0004E46E0B5037B0400884683B08B4200D1EB
:100BC000C2E10126330042689340102900D1F2E0CF
:100BD00001AF002900D18BE06A46D51C0122914665
:100BE0003A70C046C046C046D0263606B361C046FD
:100BF000C046C0463900206808F032F8012382461A
:100C00002A000021206807F0FBFF6368C046C04649
:100C1000C0464A469A407261C046C046C0465044EB
:100C2000C0B2022800D089E11C2241462B789343B0
:100C30000A4013432B7081233B706368C046C04653
:100C4000C0464A469A40B261C046C046C0460122EC
:100C50003900206808F004F8012282462900206843
:100C600007F0FEFF6368C046C046C0464A469A4049
:100C70007261C046C046C0465044022800D05DE1C3
:100C800027239A46263B994653463B706368C046E5
:100C9000C046C0464A469A40B261C046C046C046B9
:100CA00001223900206807F0DBFF012383462A0078
:100CB0000021206807F0A4FF6368C046C046C04614
:100CC0004A469A407261C046C046C0465844C0B2C7
:100CD000022800D035E12B787F2BD5D90020434660
:100CE000237303B0F0BCBB46B246A946A046F0BD94
:100CF000974A3A806A46D51CDA222A70C046C04616
:100D0000C046D022120691469361C046C046C046F6
:100D100001222900006807F0A3FF01228246390062
:100D2000206807F09DFF6368C046C046C046320099
:100D30009A4013004A465361C046C046C0465044DC
:100D4000022800D0FAE0DC232B706368C046C0465E
:100D5000C04632009A4013004A469361C046C046DE
:100D6000C04601222900206807F07AFF6B468246C0
:100D7000591D0122206807F073FF6368C046C04612
:100D8000C0469E404B465E61C046C046C046504489
:100D9000022800D0D2E01023002213212000FFF708
:100DA000B3FC002800D09CE70F230F221321200062
:100DB000FFF7AAFCBBE00D22825601AF102A00DC2F
:100DC0000AE7644A3A80C27B92466A46D51CDA2218
:100DD0002A70C046C046C046D02212069146936192
:100DE000C046C046C04601222900006807F038FF0F
:100DF000012283463900206807F032FF6368C0464D
:100E0000C046C04632009A4013004A465361C0466D
:100E1000C046C0465844022800D08FE0DC232B7027
:100E20006368C046C046C04632009A4013004A4636
:100E30009361C046C046C04601222900206807F0E1
:100E40000FFF6B468346591D0122206807F008FFFB
:100E50006368C046C046C04632009A4013004A4606
:100E60005361C046C046C0465844022866D1132389
:100E70002B706368C046C046C04632009A401300DB
:100E80004A469361C046C046C046012229002068F8
:100E900007F0E6FE6A4683460123002120680232FD
:100EA00007F0AEFE6368C046C046C04632009A40B6
:100EB00013004A465361C046C046C0465844C0B2BB
:100EC00002283BD16B4642469B7893431022134342
:100ED0006A46937093232B706368C046C046C04631
:100EE00032009A4013004A469361C046C046C0464D
:100EF00001222900206807F0B3FE6B468346991C47
:100F00000122206807F0ACFE6368C046C046C046B8
:100F10009E404B465E61C046C046C04658440228CB
:100F20000CD10F23524613212000FFF7EDFB0028C0
:100F300000D0D6E60123626893404FE6032040428A
:100F4000CFE603204042CAE604204042C9E6C0463C
:100F50005D7C000055700000F0B5C64600B582B05B
:100F600002236A460500D3710C004368C046C046A0
:100F7000C04601273A009A401300D022120690463C
:100F80009361C046C046C0466B460122D91D006829
:100F900007F066FE6A460600012300212868063233
:100FA00007F02EFE6B68C046C046C0463A009A4025
:100FB000130042465361C046C046C0468619F6B289
:100FC000022E37D16B46997960231C4099436B46BA
:100FD00021436A4699718223D3716B68C046C0462B
:100FE000C0463A009A40130042469361C046C0464C
:100FF000C0466B460122D91D286807F031FE6B46BA
:101000000400991D0122286807F02AFE6B68C0467B
:10101000C046C0469F4043465F61C046C046C0468A
:1010200020180238441EA0414042B04302B080BCA8
:10103000B846F0BD03204042F8E7C046F0B5C646CA
:10104000072300B584B06B4419700F219846A9237B
:1010500069440B7005004368C046C046C04601267F
:101060003200D0279A403F06BA61C046C046C0460B
:101070000122006807F0F4FD0122040041462868BF
:1010800007F0EEFD6B68C046C046C0469E407E61DC
:10109000C046C046C046201802384442604103247E
:1010A00040422040033804B080BCB846F0BDC04682
:1010B000F0B54546DE4657464E460D23E0B5C356CD
:1010C0000400884685B08B4200D1CFE10B0002338B
:1010D00000DB75E010230193123B984640230093F8
:1010E0003E3B9B4601273B00626803AE9340A27BD8
:1010F0005A4500D07EE002AAD51C5A46A27311229E
:101100003270C046C046C046D02212069146936156
:10111000C046C046C04601223100206807F0A0FD4D
:10112000012382462A000021206807F069FD6368D8
:10113000C046C046C04601273A009A4013004A46BE
:101140005361C046C046C0465044C0B2022800D0D9
:101150007EE11F222B789343019A1A4391232A7030
:1011600033706368C046C046C0463A009A401300D8
:101170004A469361C046C046C046012231002068FD
:1011800007F06EFD012206002900206807F068FDC7
:101190006368C046C046C0469F404B465F61C0463C
:1011A000C046C0463618022E00D051E1434600200A
:1011B000637305B0F0BCBB46B246A946A046F0BD7D
:1011C000142900DDDAE0CBB20D2900DCDFE01129C3
:1011D00000DD47E10E33DBB201936023012700936A
:1011E0005D3B9B463B00626803AE9340A27B5A4541
:1011F00000D180E711223270C046C046C046D022DE
:10120000120691469361C046C046C0460122310095
:10121000206807F025FD02ABDD1C824601232A0071
:101220000021206807F0ECFC6368C046C046C04659
:101230003A009A4013004A465361C046C046C04631
:101240005044C0B2022800D002E11F232A78134084
:10125000009A1A4391232A7033706368C046C046CF
:10126000C0463A009A4013004A469361C046C046C1
:10127000C04601223100206807F0F2FC01228246BC
:101280002900206807F0ECFC6368C046C046C046F1
:101290003A009A4013004A465361C046C046C046D1
:1012A0005044022800D0D3E03B00626893405A4685
:1012B000042A00D16FE06F4A3280E27B0092DA228A
:1012C0002A70C046C046C0464A469361C046C046E2
:1012D000C04601222900206807F0C2FC0122824694
:1012E0003100206807F0BCFC6368C046C046C046B9
:1012F0003A009A4013004A465361C046C046C04671
:101300005044022800D0A3E0DC232B706368C04661
:10131000C046C0463A009A4013004A469361C04610
:10132000C046C04601222900206807F099FC02ABA4
:10133000591D82460122206807F092FC6368C0466E
:10134000C046C0469F404B465F61C046C046C0464F
:101350005044022800D07BE01023102213212000EB
:10136000FFF7D2F9002800D175E0FB22031D1342DC
:1013700000D01EE7012362689340BEE61F2301935D
:101380000B3B9846602300935C3B9B46AAE61233D6
:10139000DBB20193A2E6384A3280DA222A70C046D4
:1013A000C046C0464A469361C046C046C046012278
:1013B0002900206807F054FC012282463100206891
:1013C00007F04EFC6368C046C046C0463A009A40EB
:1013D00013004A465361C046C046C04650440228E6
:1013E00036D1DC232B706368C046C046C0463A0045
:1013F0009A4013004A469361C046C046C046012247
:101400002900206807F02CFC02AB591D82460122FE
:10141000206807F025FC6368C046C046C0469F4070
:101420004B465F61C046C046C046504402280FD1BB
:101430001023002213212000FFF766F9002800D0B6
:1014400093E70F230F2213212000FFF75DF98CE7AC
:1014500003204042ADE60F2313212000009AFFF73E
:1014600053F982E70B33DBB201938BE70420404250
:101470009FE6C046557000005D7C0000F0B5C64692
:1014800000B582B03C236A460500D3710C00436866
:10149000C046C046C04601273A009A401300D022F9
:1014A000120690469361C046C046C0466B46012274
:1014B000D91D006807F0D4FB6A460600012300210D
:1014C0002868063207F09CFB6B68C046C046C046E1
:1014D0003A009A40130042465361C046C046C04697
:1014E0008619F6B2022E37D16B467F229B79944340
:1014F00013401C436B466A469C71BC23D3716B68D6
:10150000C046C046C0463A009A4013004246936126
:10151000C046C046C0466B460122D91D286807F068
:101520009FFB6B460400991D0122286807F098FB79
:101530006B68C046C046C0469F4043465F61C04698
:10154000C046C04620180238441EA0414042B04365
:1015500002B080BCB846F0BD03204042F8E7C04668
:10156000F0B5C646072300B584B06B4419700F214F
:101570009846B82369440B7005004368C046C046CE
:10158000C04601263200D0279A403F06BA61C046C5
:10159000C046C0460122006807F062FB0122040039
:1015A0004146286807F05CFB6B68C046C046C046F1
:1015B0009E407E61C046C046C04620180238444264
:1015C0006041032440422040033804B080BCB84648
:1015D000F0BDC046F0B5C64600B582B037236A46B6
:1015E0000500D3710C004368C046C046C0460127C1
:1015F0003A009A401300D022120690469361C046EA
:10160000C046C0466B460122D91D006807F028FB82
:101610006A460600012300212868063207F0F0FA26
:101620006B68C046C046C0463A009A401300424626
:101630005361C046C046C0468619F6B2022E37D165
:101640006B46997906231C4099436B4621436A46B1
:101650009971B723D3716B68C046C046C0463A0043
:101660009A40130042469361C046C046C0466B464E
:101670000122D91D286807F0F3FA6B460400991D72
:101680000122286807F0ECFA6B68C046C046C046E5
:101690009F4043465F61C046C046C046201802389E
:1016A000441EA0414042B04302B080BCB846F0BDE9
:1016B00003204042F8E7C046F0B5C646072300B510
:1016C00084B06B4419700F219846B92369440B709C
:1016D00005004368C046C046C04601263200D027F8
:1016E0009A403F06BA61C046C046C0460122006823
:1016F00007F0B6FA012204004146286807F0B0FA64
:101700006B68C046C046C0469E407E61C046C0462B
:10171000C046201802384442604103244042204021
:10172000033804B080BCB846F0BDC046F0B5C6462C
:10173000072300B584B06B4419700F219846BA2373
:1017400069440B7005004368C046C046C046012688
:101750003200D0279A403F06BA61C046C046C04614
:101760000122006807F07CFA012204004146286843
:1017700007F076FA6B68C046C046C0469E407E6160
:10178000C046C046C0462018023844426041032487
:1017900040422040033804B080BCB846F0BDC0468B
:1017A000F0B5CE46474680B583B01500AF236A46F4
:1017B0000400D37189464368C046C046C04601262E
:1017C0003200D0279A403F06BA61C046C046C046A4
:1017D0006B460122D91D006807F042FA2A008046B4
:1017E0004946206807F03CFA6368C046C046C046D8
:1017F00032009A407A61C046C046C0466B1C4044E5
:10180000834200D062E02E236A46D3716368C046EB
:10181000C046C04632009A40BA61C046C046C04683
:101820006B460122D91D206807F01AFA6A468046E5
:10183000012300212068063207F0E2F96368C04600
:10184000C046C04632009A407A61C046C046C04693
:101850004044C0B2022839D16B4638229B79013D01
:10186000ED00934315401D436B466A469D71AE23C0
:10187000D3716368C046C046C04632009A40BA6120
:10188000C046C046C0466B460122D91D206807F0FD
:10189000E7F96B460500991D0122206807F0E0F981
:1018A0006368C046C046C0469E407E61C046C04692
:1018B000C046281802384542684103254042284066
:1018C000033803B0C0BCB946B046F0BD0320404267
:1018D000F7E7C046F0B5C64600B582B037236A4682
:1018E0000500D3710C004368C046C046C0460127BE
:1018F0003A009A401300D022120690469361C046E7
:10190000C046C0466B460122D91D006807F0A8F901
:101910006A460600012300212868063207F070F9A4
:101920006B68C046C046C0463A009A401300424623
:101930005361C046C046C0468619F6B2022E37D162
:101940006B46997960231C4099436B4621436A4654
:101950009971B723D3716B68C046C046C0463A0040
:101960009A40130042469361C046C046C0466B464B
:101970000122D91D286807F073F96B460400991DF0
:101980000122286807F06CF96B68C046C046C04663
:101990009F4043465F61C046C046C046201802389B
:1019A000441EA0414042B04302B080BCB846F0BDE6
:1019B00003204042F8E7C046014B18707047C0460C
:1019C0004F230020F0B5D64646464F461920C0B5F5
:1019D00000F064F88026D023B6041B065E62134B29
:1019E000B2469946124B134D984600234A46EB5691
:1019F00040469B00D15804F0F7F90023EB56002B2A
:101A000010DDD02700243F06534696207B6100F06E
:101A100017FF9620BE6100F013FF0023EB56013440
:101A2000A342F1DC044800F00BFFDEE7948E0010C7
:101A3000EC8D00104F230020B80B0000094A8300F2
:101A400094464022634410B51C68C0006240C02424
:101A500014408022520113431C60034B9C46604497
:101A6000416010BD04C00140004001400A4B8000AD
:101A70009C4604236044002901D00C230821002A3D
:101A800000D10B00026853400C221A4080235B01F6
:101A9000184302607047C04604C001400123D022B1
:101AA0008340120693629361094A83009446402260
:101AB00063441968C0004A40C0211140802252018D
:101AC00013431960034B9C460523604443607047F1
:101AD00004C0014000400140024B18688007C00F5D
:101AE0007047C04600C00640F8B5EFF3108772B6E5
:101AF0000E4E3368002BFCD0BFF35F8FCB08C418A9
:101B00000725A446C45C01230D40AB4018002040CB
:101B1000234208D1624623431370BFF35F8F3060C6
:101B200087F31088F8BD100001F0DAFC2C0100D01A
:101B3000F8B5CE4647468C4680B5EFF3108872B6AE
:101B4000214D2C68002CFCD0BFF35F8F9A422CD81B
:101B5000D4080721055D0619012411408C402C4250
:101B60001FD007218946063909E0D408055D06190A
:101B70004C460F001440A7403C002F4211D00132C8
:101B80009342F2D201204042BFF35F8F00220E4BFE
:101B90001A6088F3108800280FDBC0BCB946B04635
:101BA000F8BD2C4310003470EEE7BFF35F8F0023C5
:101BB0002B6088F31088012040426346002BECD054
:101BC000089801F08DFCC0462C0100D00021044B88
:101BD000044ABFF35F8F02C39342FAD17047C046F5
:101BE000000100D0800100D0044A1078431CDBB211
:101BF000172B00D9102313707047C046180F002010
:101C000000B5054B83B00100009318221F23034841
:101C1000FFF78EFF03B000BDA48E0010301E002021
:101C200001238340002904D0034A1360034A136050
:101C30007047034A1360FBE780E200E000E100E048
:101C400080E100E001238340014A13607047C046F1
:101C500000E200E0084B10309B688000C358002B66
:101C600007D0064A00209B1A2F229A424041C0B258
:101C700070470020FCE7C04600ED00E01C0F00208C
:101C8000024B10309B688000C058704700ED00E0A8
:101C900070B50D00EFF3108672B60F4A1368002B73
:101CA000FCD0BFF35F8F0D4B10309B6884001B5935
:101CB0000B4A934203D09D4201D001F029FC074B0F
:101CC0009B681D51BFF35F8FBFF35F8F0022024BF4
:101CD0001A6086F3108870BD240100D000ED00E08A
:101CE000CD010010F0B557464E464546DE46E0B5FC
:101CF000894683B005001700EFF3108A72B65D4A7B
:101D00001368002BFCD0BFF35F8F00205A4B18568E
:101D10009B4600286CDB5A464400584E2418A40009
:101D2000331998469B7910351370554BAA009B6860
:101D300001929B589C469B1B2F2B28D80122614661
:101D40009143CB79BB4208D86AE053009B189B00B3
:101D5000F318DD79BD4251D9190006228A56002AAE
:101D6000F3DA0B1D9B46474E43465C46043B1B1B68
:101D70001B05454C5B0D23438B80887141468A715E
:101D80004A46424B8E800B60CF718A601BE0404B0D
:101D90009C4542D142463F4B023413803E4B36199C
:101DA000043B9E1B3605384B760D1E433B4B56803D
:101DB0009380FF23D771937143464A469A6001236B
:101DC00042461A43944661462D4B019A9B689950AE
:101DD000BFF35F8FBFF35F8F0022264B1A608AF339
:101DE000108803B0F0BCBB46B246A946A046F0BD81
:101DF00001F08EFB5B46002018568CE70B1D9B46BE
:101E00008B8804345B051B155B4436199E1BE0234D
:101E10003605760D1B021E43A6E701F079FBB9E7F4
:101E200045460B001E489B1B5B415843000D194B58
:101E30002B80A31C9C46B4446546174B0434043BDA
:101E40005B1B1B05104D5B0DAC462B4345463619FD
:101E50006B800B1F9E1B6346A87148463605760DA6
:101E60001E430A4BAE80EF71A8600B6043461343DC
:101E70009C46A8E7240100D04D2300201C0F002021
:101E800000ED00E001BD000000E0FFFF01488047D9
:101E9000CD01001000A1FFFF4C0F002001BDFFFF8E
:101EA000AAAA0000F0B5DE4657464E464546E0B5C4
:101EB0000C0083B0EFF3108972B6594A1368002BF7
:101EC000FCD0BFF35F8F574B9A68030010339F001D
:101ED000D559554A9046954234D0A54245D0534EE7
:101EE000AA1B2F2A2ED80122824092465146504AE0
:101EF00012681140019151464E4A1160BFF35F8F45
:101F0000EFF305829346002A35D101232A000621EA
:101F10009A43936851569C420AD178E04B005B1873
:101F20009B00F3189968A1422AD006211A0059563D
:101F30000029F3DA019B002B19D052463E4B1A6060
:101F40003B4B1A60374B9B68DD51BFF35F8FBFF38C
:101F50005F8F0022324B1A6089F3108803B0F0BC07
:101F6000BB46B246A946A046F0BD1500EAE7524678
:101F7000304B1A60E6E79342C7D001F0C9FAC4E7D4
:101F800006215956002922DB4A00501880003418D7
:101F90008046A0689860E079D87106202056987134
:101FA000A0797F2824D8A488F01A64052415444415
:101FB0000019E0240005400D2402204398805218A7
:101FC0001E4B9200B6181A781970B271B2E75946D2
:101FD00000290FD1FF3191711949918017490A7871
:101FE0009A71184A9B1B5B415A43120D0A70A1E774
:101FF0001548E3E7154A1649D21A083A5002400D2F
:1020000001439980134952080A43DA8092E713008A
:102010000029B9DA5A46002AECD14546DEE7C04627
:10202000240100D000ED00E0CD0100101C0F0020C5
:1020300000E100E080E100E080E200E04D230020CC
:1020400001BDFFFFAAAA000001BD0000560F00203D
:1020500000F0FFFF00F8FFFFF0B5EFF3058101246A
:102060000443EFF3108672B6214A1368002BFCD0AC
:10207000BFF35F8F1F4B05001F4AED1A6D416A4386
:10208000120D1E4D8900AF6852B27F58A7421CD076
:102090000621595691421CD012215956914222D004
:1020A0001E215956914220D02A215956032491428B
:1020B00010D0134B19781A708171BFF35F8F002213
:1020C0000B4B1A6086F31088F0BDAB680D4C5C506A
:1020D000EFE700246100091989005B18FF2199715D
:1020E00009499980E5E70124F4E70224F2E7C046B4
:1020F000240100D01C0F0020AAAA000000ED00E07F
:102100004D230020CD01001001BDFFFF054B064A05
:102110001360064A136053609360D3601361536188
:10212000936170478080808000E400E004E400E078
:1021300000B5074B83B0010000930022052305483A
:10214000FFF7F6FC002801DB1F23181A03B000BDBF
:10215000C08E001053230020024B9C46614489002E
:10216000016070474000003410B50400FFF73CFDEB
:1021700001002000FFF7F0FFFF232371BFF35F8F03
:1021800010BDC04610B50400FFF72EFD0100200071
:10219000FFF7E2FFFF23A380BFF35F8F10BDC046B0
:1021A00010B504000120FFF72BFD034BC3189B0063
:1021B0002360BFF35F8F10BD40000034034B9C468B
:1021C000614489000160BFF35F8F704740000034B5
:1021D00083680B4810B584466144624409011201CA
:1021E0009A18591854684B6801209C4201D802D0B3
:1021F0000020C0B210BD12680B689A42F9D8F7E708
:10220000FFFFFF0F0A4B1968EFF3108072B60A68E0
:10221000002AFCD0BFF35F8F1B68BFF35F8F0022E3
:102220001A6080F3108840BF002000217047C0462C
:102230001C230020F8B5574645464E46DE46E0B51D
:1022400099460CAB19780DAB1B78050090469A4661
:102250000768002912D1BE7B002E45D074003B6870
:10226000A419033C1B195A783100BA73002A00D113
:10227000FA7300229A705A701A7003E00E004C0034
:102280006418033C2A4B00229C46AB6861449C4680
:102290004346090161440B604B464B600A9B8B60CF
:1022A0000B9BCB603B681B199A705A701A707B7B32
:1022B0009B46002B28D032007B685946B868984767
:1022C0005B465B005B443A68033B002813D05846EA
:1022D0001419A070D118D35C002B00D063705B463A
:1022E0000E707B73B34510D03000F0BCBB46B246D5
:1022F000A946A046F8BDD3189E701119125D002A98
:1023000000D05A705B460B707E7342464B46287D68
:1023100000F0AAFB041E06D05346002B03D1310067
:10232000286800F0E9FD0E9B002BDDD01C70DBE778
:10233000FFFFFF0FF0B5DE4657464E4645460023E9
:10234000E0B58BB00893664B8200D45800239B46BF
:10235000099000F029FB626806000F00EFF310857A
:1023600072B61368002BFCD0BFF35F8F23689C46C6
:102370005B7B9946002B68D0A2685A4B90464B4431
:102380001B01984443461A685B6810001900801BC3
:10239000B941002963DD099800F066FB00230022A3
:1023A000984600230692079300239A466368BFF37A
:1023B0005F8F5A461A6085F310885346002B08D168
:1023C0000028C6D10BB0F0BCBB46B246A946A04619
:1023D000F0BD089B414618024B461843D04762683F
:1023E00006000F00EFF3108572B61368002BFCD0C7
:1023F000BFF35F8F002F4FDB33003B4302D02369D5
:10240000002B60D12368DA7B002A07D051008A189C
:1024100019688C4649466244033A51709A7B002AF7
:1024200001D14A469A734A46DA734B46E168013B4A
:10243000CA5C0132CA545B4623616368BFF35F8F95
:102440005A461A6085F3108883E7002300229846D5
:10245000002306920793002300209A46A6E700294E
:1024600001D1002897D10021604600F0A3FC43462B
:102470001A685B680692079343469B689A464346F0
:10248000DB689846E3684B44013B1B7808931B02CA
:1024900003432361002089E72369002BB2D0069A09
:1024A000079B921BBB41002B15DB59460491012170
:1024B0000391494602914146019151462000009105
:1024C000FFF7B8FEB7E700F06FFA32003B001218D2
:1024D0004B41002BE9DA0122034B5242E5E7C046AB
:1024E00000230020FFFFFF0FFFFFFF7F10B5144CFC
:1024F0006368002B04D00A211248FFF72DFE10BD9F
:102500002300114A1021206800F06EFB032000F028
:102510003FFA032000F01AFB03200C4900F05EFA9A
:10252000FFF762FB0A4B9C4603232375D0231B064F
:102530001B6860446375074B80006060DC60DAE70D
:10254000640F00201C230020D1210010352300102F
:10255000400000340023002000487047640F002032
:10256000F0B557464546DE464E46E0B585B0019388
:1025700010AB1B7800270393002380469A460092F5
:1025800043465A68EFF3108972B61368002BFCD0EB
:10259000BFF35F8F43461D68AC7B002C4FD06600B5
:1025A0002B683619033E9B195A78AA73002A00D16A
:1025B000EA7342469F705F701F709268484B944662
:1025C0000099019AE3181B01634419605A600E9A3E
:1025D0009A600F9ADA602B689B199F705F701F706A
:1025E0006B7B9B46002B42D022001900A8686B68C9
:1025F00098475B465B005B442A68033B00282DD06C
:1026000058469619B070D118D35C002B00D0737067
:102610005B460C706B735C452AD04346DB681B1924
:10262000013B187843465B68BFF35F8F1F6089F3F7
:1026300010885346002B2AD10002204307E05B6834
:10264000BFF35F8F1C6089F310880120404205B002
:10265000F0BCBB46B246A946A046F0BDD3189C705C
:102660009119925D002A00D05A705B460B706C7312
:102670004346187D009A019B00F0F6F98246002837
:10268000CBD043462100186800F036FCC5E7039B19
:10269000002B22D00E9B00200F99984703000B437C
:1026A0001BD004000D1E0ADA009A019B121BAB41DD
:1026B00000920193002B0ADB039B9A4660E700F02F
:1026C00073F900196941009001910029F4DA01239E
:1026D000044C5B4200930194EEE70020B7E7C0464C
:1026E000FFFFFF0FFFFFFF7FF8B542680400EFF325
:1026F000108572B61368002BFCD0BFF35F8FFF23E9
:102700002068CEB2427B0B40B24208D007685A0024
:10271000BC46D2186244033A9278002A11D0E2688B
:10272000090A94466344013B1B78C9B28B420DD021
:1027300000206368BFF35F8F00221A6085F3108862
:10274000F8BD23698B42F3D12261F1E7310000F03B
:10275000D3FBEEE7407D7047F0B504000D00062680
:102760007642F717C64636196F4100B584B08F42DE
:1027700014D811D000F018F932003B00121A8B4126
:10278000002B15DC002B3ED02000290000F016F9AC
:1027900004B080BCB846F0BD8642EBD900260027C5
:1027A00000F002F932003B00121A8B41002BE9DDE8
:1027B000002302930193154B3200009314483B0011
:1027C000FFF7CEFE0028DFDB00239846BC46114A07
:1027D000114F7B6A9C4504D8B96A8E42D4D99C4576
:1027E000D2D11168EFF3108072B60B68002BFCD0C9
:1027F000BFF35F8F1368BFF35F8F4146196080F3AB
:10280000108820BFE5E7002ABED0D1E705220010DE
:10281000640F00201C2300200040054070B5040018
:102820000D0000F0C1F800196941002902DBFFF733
:1028300093FF70BD012001494042F8E7FFFFFF7F91
:1028400070B5060000F0B0F8FA2204000D00002375
:1028500030000021920003F045F800196941002979
:1028600002DBFFF779FF70BD012001494042F8E724
:10287000FFFFFF7F70B5EFF3058305000C0084B008
:10288000002B0FD0104B0020596AA14203D39B6A42
:102890000130AB4201D304B070BD091B481E814119
:1028A000C8B2F8E7094E02930193094B0200009366
:1028B00030000B00FFF754FE011EE3DD20BF3000A7
:1028C000FFF712FFDEE7C04600400540640F00201E
:1028D00005220010F0B5EFF30582D6464F46464676
:1028E0001000C0B51038EFF3108872B6214C236881
:1028F000002BFCD0BFF35F8F0123190081401E4DD8
:102900001F006963AA461D4D29601D4D2E78AC46F7
:102910003500C5402F402B4215D05346194D5F6AF4
:1029200083005D59AF4218D3174A8E439B586246C5
:102930001670BFF35F8F0022226088F31088002B8F
:1029400006D0984704E0BFF35F8F276088F31088B4
:10295000E0BCBA46B146A846F0BD0C4B92009C467E
:10296000624413681360BFF35F8F0023236088F312
:102970001088EDE7280100D0004005403C7005407C
:102980005223002028230020181D0020D03F05409E
:1029900010B50100024A0348FFF7A6F810BDC04673
:1029A000DC8E00104C230020034B596A0A00986A01
:1029B000596A8A42FAD1704700400540064A536A74
:1029C0009942FCD807D1044B02E05A6A914202D1E5
:1029D0009A6A8242F9D370470040054070B50400FE
:1029E0000D00EFF3108672B61A4A1368002BFCD064
:1029F000BFF35F8F002D1BD02000FFF741F9164970
:102A000081420AD02000FFF743F901212000FFF79F
:102A100007F90123A340114A1360114BA400E550AC
:102A2000BFF35F8F00220B4B1A6086F3108870BDD6
:102A30000B4BA200D5500122A2400A4920000B787E
:102A400093430B700449FFF72DFA00212000FFF794
:102A5000E7F8E5E7280100D0D528001038600540E8
:102A6000181D002052230020F0B54F46D64646469A
:102A7000C0B50700304C616A0D00A66A616AA942C0
:102A8000FAD18B4208D805D00120E0BCBA46B14645
:102A9000A846F0BDB242F7D9EFF3108972B62748C5
:102AA00001680029FCD0BFF35F8F01252449BD4098
:102AB0008C460978204C0E002E438846F1B28A4697
:102AC000614650460870391D1E48890065630A51E9
:102AD000B9000B50216A0020294219D0616A080010
:102AE000A66A616A8142FAD18B4219D801D1B242F9
:102AF00016D8C2451DD0104B1F201D625D630123F7
:102B00000740BB40104A1E381360634642461A70A5
:102B1000BFF35F8F0022094B1A6089F31088B4E776
:102B20000020BFF35F8F0022044B1A6089F31088E6
:102B3000ABE70120ECE7C04600400540280100D08B
:102B4000522300202823002080E200E010B5EFF39C
:102B5000108472B60A490B68002BFCD0BFF35F8F5C
:102B600001238340074A0848136202789A4302709F
:102B7000BFF35F8F00230B6084F3108810BDC04645
:102B8000280100D0004005405223002070B5060007
:102B90000D00140000291ED0002A1ED07368806822
:102BA000984762006B0012195B193168033A033BC6
:102BB000002808D08A189570C818CB5C002B0ED15D
:102BC0000470280008E0CB189C7088188A5C002AE2
:102BD00000D05A700570200070BD0800FCE75370EB
:102BE00004702800F8E7C04610B583600023CCB21B
:102BF00043730133426004738373C4730068421CDF
:102C0000012C05D90133DBB2137003329C42F9D198
:102C1000FF2319404B005918002340180338437014
:102C200010BDC046F8B5CE46474606000C0080B53C
:102C3000002907D04D0003686D18033D5A195778D5
:102C4000002F04D12000C0BCB946B046F8BD7900C1
:102C5000C919033988464344597889460021597077
:102C6000517073683A0021008068984733680028E3
:102C700014D042469A18947059195B5D002B00D00D
:102C800053700F70270049463000FFF7CBFF390023
:102C900002003000FFF77AFF0400D3E742464146C6
:102CA0005D19AF709A185B5C002B00D06B701470CC
:102CB000E9E7C046F0B557464546DE464E46E0B524
:102CC0000D006B0001685B19DF1E0400C85D83B056
:102CD0000192CA19002850D043001B18033BCB189F
:102CE0005E78B446002E1AD1019E002E42D0E67BBB
:102CF000002E04D073009B19CB18033B5D70A37B9F
:102D0000002B00D1A573E57300282FD10023537049
:102D100003B0F0BCBB46B246A946A046F0BD720067
:102D20006244033A89184A78904600224A709146D4
:102D30005A70010032002000FFF728FF4346824608
:102D4000002B07D05B0021684344033BCB185A7823
:102D5000002A16D1424651462000FFF717FF21688E
:102D6000019BCA19002BC2D10028CFD043001B18E9
:102D7000033BCB1800219970C8E7019B002BB6D10B
:102D8000C4E750008018033809184878834648463D
:102D90004870587041462000FFF7F8FE59468046BB
:102DA0002000FFF73FFF414602002000FFF7EEFE44
:102DB0008046CFE7F0B54E464546DE465746E0B57D
:102DC000467B040075000068AD19033D83B0019196
:102DD000415D4219002952D04B005B18033BC318D8
:102DE0005F78BC46002F1CD1019D002D44D0E57BAF
:102DF000002D04D06B005B19C318033B5E70A37BEE
:102E0000002B00D1A673E673002931D100233000D6
:102E10005370617303B0F0BCBB46B246A946A046EE
:102E2000F0BD7A006244033A80184278934600224B
:102E3000427091465A7020003A00FFF7A7FE5B46A9
:102E40008046002B07D05B0021685B44033BCB1816
:102E50005A78002A17D15A4641462000FFF796FEBD
:102E6000019B010020684219002BC0D10029CDD060
:102E70004B005B18033BC31800209870C6E7019B0A
:102E8000002BB4D1C2E750008018033809184878E5
:102E9000824648464870587059462000FFF776FE33
:102EA00053468346002B07D05B0021685344033B05
:102EB000CB185A78002A06D1594652462000FFF70F
:102EC00065FE8346C7E75000801803380918484656
:102ED0004F784870587051462000FFF757FE390070
:102EE00081462000FFF79EFE494602002000FFF7C2
:102EF0004DFE8246E0E7C04670B5040000292CD0A4
:102F0000437B8B422ED005684800401803382818B0
:102F10008278002A21D053009B18033BEA5CEE180C
:102F20008A4202D11BE0002A08D053009B18033BC1
:102F3000EB185A788A42F6D142785A70002301225F
:102F4000837043702000FFF7B5FE617B0200200014
:102F5000FFF71CFE6073012000E0002070BD437885
:102F60003370EBE701221900FFF7A4FE6073012024
:102F7000F4E7C04630B50C2083B000F0B3F9FEF79B
:102F8000ABFD00280ED0944B944A1A605A609A60A8
:102F9000DA601A615A619A61DA611A62904A5A6279
:102FA00003B030BD8F4CA06700F0F0F901228E4BCA
:102FB0001A60636C012BFCD103228C4B1A60894A86
:102FC000936B012BFCD101330121894A894800937D
:102FD000043300F033F90523874A00930121874821
:102FE00000F02CF9864B5A68FF2A02D88022520042
:102FF0005A608022784C7D4B21691201804D1A6005
:10300000002905D0606901F039FE01300138FDD199
:10301000E0217B4B02201A681140802252012A4392
:1030200011601968484003210140116004219A6829
:103030001142FCD08022802192012A4309011160B3
:10304000802252005A606F4B23616F4B5968FF29F1
:1030500000D85A6003226C48634B01211A600200B9
:1030600093681942FCD0E02513681D4080235B0162
:1030700003431D6012684A40032111401960022178
:10308000614A93681942FCD0802380219B0103434D
:103090000901196080215D4B4900516063615C4BFF
:1030A0005A68FF2A00D8596080225A4BE169120100
:1030B000574D1A60002905D0606901F0DFFD01302D
:1030C0000138FDD1E02252490B681A4080235B0190
:1030D0002B431A60802380229B012B4312011A602C
:1030E00080223E4B52004A60E3614B4B5968FF29F6
:1030F00000D85A608022494B216A1201464D1A605D
:10310000002905D0606901F0B9FD01300138FDD119
:10311000E02241490B681A4080235B012B431A606F
:10312000802380229B012B4312011A60802380227E
:103130005B004B60294BD2022362394B59689142A4
:1031400000D25A608022374B616A1201344D1A60F6
:10315000002905D0606901F091FD01300138FDD1F1
:10316000E0222F490B681A4080235B012B431A6031
:10317000802380229B012B4312011A608023DB02F3
:103180004B60174B6362284B5A68FF2A02D8802293
:1031900052005A608022254BA1691201224D1A600B
:1031A000002905D0606901F069FD01300138FDD1C9
:1031B000E0221D490B681A4080235B012B431A60F3
:1031C000802380229B012B4312011A6080235B0025
:1031D0004B600E4BA361E3E6341E0020006CDC0262
:1031E0001BB70000008000403CB0004030B0004001
:1031F000002F685900800240008C864700C00240C2
:1032000030800040001BB7003C80004040597307ED
:103210005480004054B000406080004060B00040E6
:103220006C8000406CB000404880004048B00040D6
:10323000014B8000C0587047341E0020F8B50400D0
:103240000C2017001D000E0001F018FD4101091AA5
:103250008B01591AC90009188901380001F00EFDC7
:10326000069A2B04120313432268002A21DB194A11
:10327000A21851424A41802149018C4652420A40DB
:10328000154962440A6015490A60154917008D689E
:10329000AF43FBD1C021221D8901114321222660A9
:1032A000A0600A602268002AFCDAE36008230B6051
:1032B000F8BD3F2221680A40B242D8D1A268120567
:1032C000120D8242D3D1EE21E268C9020A409A422D
:1032D000CDD1EDE70040FDBF00E0004000F0004030
:1032E00000C000408023024A9B000343D362704722
:1032F0000080054010B5140080221B4BD2051A60D7
:1033000000281AD00123194A1843194BDA61194AC7
:1033100042401A62596298628022134BD2051A60A9
:103320001549164A1160E022D2041A60002C07D118
:103330008022134B12061A6010BD0D4BD861EBE7CB
:1033400080236201121B9200121912015B049A423F
:1033500000D30C4A0C4B1A60054B5A608022084B74
:10336000D2051A60E8E7C04600B00540D3C007B0F8
:10337000008005402D3FF84FFCFF01000820014070
:1033800000A00540FFFFFF00D8220020AA23064A24
:103390001B0113602F230549D360054B1960536847
:1033A000002BFCDA7047C0460040024000B0FA0033
:1033B000006002402B4B2C4A70B51A602B4A2C4BF4
:1033C0002C491A6010008B689843FBD12A4C2B4B78
:1033D0009C4209D2013B1D1BAD080135AD002D19E2
:1033E00008CC9847AC42FBD1FFF7C4FD244A204BE0
:1033F0001A60204A9368DB018033FBD14022214BC5
:10340000214D224C9A675A671A67DA66AC4208D295
:10341000236820000834002B20D0FEF7B3FEAC4216
:10342000F6D31B4C1B4DA168C022280002F0DCFA29
:10343000A560FEF7CBFBFEF769FEFFF757F8164CC9
:10344000164B9C4209D2013B1D1BAD080135AD0056
:103450002D1908CC9847AC42FBD170BDFEF784FE15
:10346000D4E7C04600E00040BFCDFBFEFE7F3C003D
:1034700000F0004000C000403C1800204C18002024
:10348000FFFFFF0100F001403C180020341800202D
:1034900000ED00E0000000204C180020581800202B
:1034A00000BEFDE7094A03001068002805D008495E
:1034B000C3188B4207D81360704706480449C318E5
:1034C00010608B42F7D901204042F5E7D01E002062
:1034D000000004203C26002010B5FFF7E1FFC046A5
:1034E0000FB400B5084883B002F0DCFB049B002B4E
:1034F00007D005A91800019101F04AFB034802F02A
:10350000D1FB0120FFF7CCFF008F0010FC8C0010D6
:1035100010B50148FFF7E4FF108F00107047C04658
:10352000F8B557464E46DE464546E0B51F000A9BB5
:1035300005009B460D9B0E00914692469B0718D1B5
:103540000B9B0C9A934214D213000B9AB8469B1A09
:103550004B444C460F0006001D0022004346013438
:1035600039002020B047AC42F7D1AA4635003E00D2
:1035700047460B9B002B38D09A441C00D04653463C
:103580001A1B5B46013C185D31003B00A847002C2C
:10359000F5D10D9B9B0721D543464A469C1A0C9BAF
:1035A000A3421BD93A009A464F469146E2194B4630
:1035B000310020200134A8475445F7D343460C99E5
:1035C000DB1B0133B9460022994203D343464A1E0E
:1035D0004A44D21A43469046013398444046F0BCD0
:1035E000BB46B246A946A046F8BDD046D1E7C04684
:1035F000F0B54F464646D646C0B584B098460EABA9
:103600001B7894469946129B0D9C109F119E9A0719
:1036100024D401221A409246002E65D1BC420CD21D
:103620001F2C00D9B5E00C9A551E302201E0202C49
:1036300003D001342A55A742F9D85246002A0DD0AA
:10364000B4420BD21F2C5DD80C9A551E302201E0DB
:10365000202C57D001342A55B442F9D1DA0635D599
:103660005A0558D4002C52D10F9A102A00D176E076
:103670000F9A022A00D187E030220C9C22704A4621
:103680000124002A27D02D220C9D2A5501340393B2
:103690000C9B62460093029643460194FFF740FF5D
:1036A00004B0E0BCBA46B146A846F0BD9A065DD467
:1036B000202CECD00C9A1519013478222A70202C79
:1036C000E5D030250C9A121915700134202CDED06B
:1036D0004A46002AD7D15A072FD41A07D7D5202215
:1036E0000C9D2A550134D2E7002A1FD04A46002AF1
:1036F00028D10C321A4225D1BC42A1D21F2C92D91A
:10370000202E18D92024DA06C1D55A0503D4A742A1
:103710001AD0A64218D00F9A102AC7D0022ACED1AA
:10372000202CB4D00C9A121901343EE0BC4295D240
:103730001F2C00D877E7202490E72B220C9D2A55D8
:103740000134A4E7013ED7E7621E012C00D18BE7CC
:103750000F9D102D1FD0022D24D01400B1E79A0622
:103760000DD478220C9C22700124AAE7202C00D1D1
:103770008DE758250C9A1219157001349FE75822CD
:103780000C9C227001249CE70C9C60322270012466
:1037900097E7202451E7023C9D06EAD40C9D2D19A1
:1037A00014008AE70C9DAA4652446225157086E7EC
:1037B00010B5002800D110BD02F028FAFBE7C04682
:1037C0000B0010B5002802D049681B68984710BD4F
:1037D000F0B5DE46574645464E46E0B59BB09B46A3
:1037E000249B09909846259B0A910B92404642469D
:1037F00019009A4601F00BFD002800D0ECE00122F0
:1038000040465146814B524201F0FCFC002800D05A
:10381000E2E00122404651467D4B524201F0DCFC81
:10382000002800D0D8E0002200234046514601F095
:10383000D3FC002800D0CDE15346C1460893802335
:10384000289ADB001A400E92289A1A4201D10623C8
:10385000269380234C46289A1B011A40089B0D9200
:10386000234300D0D8E000260027002A00D1AEE193
:1038700000230C93269B19000C9B994200DCAFE1BE
:10388000C81A431E26938023289ADB001A4300237C
:10389000002528920C93279B0024AB4200D95C1B87
:1038A0000223289A1A400D92289A134203D06B42A1
:1038B0006B415B421C400C9B002B07D0484608998B
:1038C00032003B0001F027FC8146089100220023D2
:1038D0004046514601F080FC002805D080200006BB
:1038E0008446089961440891289A4A4B099E1340DE
:1038F0004A460493269B0A990293089B03940092DC
:10390000019330005B460B9A884600F0A1F9040051
:10391000002D72D0289B220098061F23C0179843C1
:1039200041465B466530B0470C9B671CDA179C1814
:10393000DB0F98466B1E99460025544001E0202D70
:1039400013D00AAA94461F23200063440A2101359C
:103950005E1901F093F93031317020000A2101F035
:103960008DF926000400092EE9D8052306934B465D
:103970000593002304930A33039343463A00099EB8
:103980000A9F029312AB009339005B463000019509
:10399000FFF72EFE0D9B0400002B2ED00B9B279AC9
:1039A000C51AAA4229D93C008146984617004346C9
:1039B00021005A1920205B460135B047AF42F6D8A6
:1039C0004C460B992798631A01330022984200D382
:1039D00009E10134141910E0289B42460493279B07
:1039E0000A990393269B09980293534600920193E8
:1039F0005B460B9A00F02CF9040020001BB0F0BCD1
:103A0000BB46B246A946A046F0BDC046FFFFEF7FC9
:103A1000FFFFEFFFFFF7FFFF764B089D9C46680016
:103A2000400D604401F006FC734A744B01F091FBB9
:103A3000734A744B01F066FB2B03734A1B0B1A434A
:103A400006000F00714B110048460022089501F056
:103A500050FB6F4A6F4B01F07CFB02000B00300003
:103A6000390001F04FFB01F0FDFB0C9001F0E2FB8F
:103A7000694A6A4B04000D0001F06BFB0022684BA1
:103A800001F040FB01F0EEFB664A0600664B2000A9
:103A9000290001F05EFB040030000D000F9601F0DC
:103AA000C9FB624A624B01F054FB02000B0020008C
:103AB000290001F01EFB02000B0006000F0001F0C0
:103AC00048FB320004000D003B003000390001F0DB
:103AD00019FB002210901191564B2000290001F093
:103AE0001AFB0022544B01F00DFB02000B002000DA
:103AF000290001F010FB0022504B01F003FB0200F3
:103B00000B002000290001F006FB0D00802132008F
:103B10003B000400C905002001F0EBFA02000B0095
:103B20002000290001F0EEFA02000B001098119914
:103B300001F0F1FA0022344B01F0E4FA404A0F9B05
:103B40009446634400221B0501F003FB06000F00AE
:103B500002000B004846089901F03EFB00280AD0FD
:103B60000C9B3000013B39000C930022324B01F0DA
:103B7000D2FA06000F00C6250C99330063318D423E
:103B8000AD410D996D420435002900D183E63B43D8
:103B900000D16FE6089C484621002A4A2A4B01F0D2
:103BA00029FB002808D0002248462100274B01F0BD
:103BB00013FB002800D05DE6269B002B00D16AE6AF
:103BC0000E9B5A1E9341269AD31A269363E6042528
:103BD0000C9360E680231B065344C14608932EE6EF
:103BE000002326934FE60A008446013A6244121BE2
:103BF000EFE6C04601FCFFFFFB799F501344D33F23
:103C0000B3C8608B288AC63F0000F03F0000F83F31
:103C100061436F63A787D23F71A379094F930A402D
:103C20000000E03F1655B5BBB16B0240EF39FAFE1C
:103C3000422EE63F00002C400000244000001840C7
:103C4000FF0300002D431CEBE2361A3F80842E4117
:103C5000F0B54E46DE4657464546E0B597B0994624
:103C6000209E219F229B8346984607910C923B0001
:103C700032003000390001F0CAFA002800D0C1E15A
:103C8000012230003900CA4B524201F0A5FA002847
:103C900000D0E0E0012230003900C64B524201F072
:103CA000B1FA002800D0B6E0002230003900C24B43
:103CB00001F0A8FA002800D098E000223000390076
:103CC000BE4B01F089FA002800D08FE000220023CB
:103CD0003000390001F080FA002800D0B0E0002365
:103CE0000D93249B5B0501D40623984608AB9C46A4
:103CF0001722002430234146624404E00134135566
:103D00000139202C01D00929F8D888463000390023
:103D100001F0A8FA4346DA00A94B05009B181A687F
:103D20005B680892099301F085FA02000B003000ED
:103D3000390001F0DEF9089A099B01F00AFA0A90AD
:103D40000B9101F0B3FA824601F070FA02000B0009
:103D50000A980B9901F0CDF900229A4B0A900B9129
:103D600001F050FA002800D1C0E001239C46E24453
:103D7000504601F05BFA02000B000898099901F027
:103D800031FA002802D000239A4601354346002B21
:103D900069D008AB17269C4608956644554614E042
:103DA00001235B4243440A2128009A4600F066FF43
:103DB000013430313719397028000A2100F05EFFD4
:103DC000092D00D8D5E0D0460500202CE8D10323EA
:103DD000249A1340012B00D100E10EAB9846249B9E
:103DE00001940393239B029343461EE0249B584671
:103DF0000493239B00960197039343460C9A0293E6
:103E000007994B46FFF7E4FC17B0F0BCBB46B2463F
:103E1000A946A046F0BD249B5B070ED403226A4B43
:103E200024990192039123990291009358464B469D
:103E30000C9A0799FFF774FBE6E70422634BEFE760
:103E40003B0032000020002101F053F9012306005D
:103E50000F000D9345E7249B0393239B02930423B8
:103E600001935B4BE1E7280001F0E4F902000B004D
:103E70003000390001F03DF9524B002206000F00DE
:103E800001F0AAF90EAB984600280AD100223000B2
:103E900039004C4B01F0B6F9002802D1EB0700D5F0
:103EA0000135202C32D008AA9446172328006344F9
:103EB0000A2101341E1900F0B9FE3031280031709A
:103EC0000A2100F0B3FE051EEBD10323249A134010
:103ED000012B00D191E01F2C00D980E70D9B002B16
:103EE0003BD02D2342461355013478E700220A982F
:103EF0000B99344B01F070F9002800D046E7534687
:103F0000002B67D101239C46E2443FE70323249A18
:103F10001340012B00D062E7239B002B00D15EE70A
:103F20000D9B002B03D1249A0C33134202D0239B08
:103F3000013B2393239B9C42CDD208AB9C46172286
:103F4000302362441F2C06D82399013413558C4228
:103F5000C1D0202CF8D1202441E7249B5B0721D439
:103F6000249B1B0700D43AE7202342461355013413
:103F700035E75746089D202C37D022003021404697
:103F8000002F08D00132B154202A43D0D3431B194B
:103F90001B18002BF6D10EAB98462E234146541C1D
:103FA0008B547EE72B2342461355013417E7C04656
:103FB000FFFFEFFFFFFFEF7F65CDCD4165CDCDC1A9
:103FC000189100100000E03F1C8F0010208F00109F
:103FD0002C8F0010DB0700D4D8E693E7239B002B3F
:103FE00000D1FAE60EAB98469AE70323249A1340D1
:103FF000012B00D0F1E60EAB9846239B002B00D19D
:1040000069E78DE7249B0393239B0293032301938A
:10401000064B0AE70323249A20241340012B00D0E7
:10402000DBE6239B2024002BDCD1D6E6288F001072
:10403000F0B55746DE464E464546E0B59FB01F00F8
:10404000289B91469846BF4ABF4B83468A461A60D2
:10405000002900D10FE2002438782200002800D186
:1040600011E243464E460A9309E0220033005146CE
:10407000651CD8472C003878002800D185E001372E
:104080002528F2D104239946023B9846013B0022A1
:104090009C460B943878791C0300203BDBB20D0062
:1040A000102B03D8A94C9B00E3589F460300303BDC
:1040B0000B9C092B3ED92A2800D179E000233D0032
:1040C00098460F0000230B932E284FD00300683B27
:1040D000DBB2122B1FD89E499B00CB589F466346EC
:1040E0000F001A43D6E743460F001A43D2E74B4668
:1040F0000F001A43CEE710230F001A43CAE7082324
:104100000F001A43C6E768786C2800D1AAE2802322
:104110005B001A4301370300253BDBB2532BA4D8C5
:104120008C499B00CB589F4680235B0068781A43DC
:104130000137F0E7002394461D00020000E0013142
:10414000A8004019400080180A7830380500100097
:1041500030383B000F000928F1D99F1C0023A846E6
:1041600010000D0062460B932E28AFD18023687893
:10417000DB001A430300303B092B00D885E12A28D5
:1041800000D196E13D000137A0E72200B1469145FC
:1041900002D84B46013B1A004B4651460020D847F7
:1041A00020001FB0F0BCBB46B246A946A046F0BDF9
:1041B0000A9B02CB8846002903DB78780A930237F2
:1041C00080E702210A43414649427878884602370F
:1041D0000A9377E7782800D124E3582800D14EE2EB
:1041E0006F2800D1BEE3622800D1BAE1102311008C
:1041F00099438023DB000A250C911340692801D0E4
:1042000000F0B3FC002B00D117E301230C9A9A4372
:104210000C9280220C9B920013409C46692800D18E
:10422000AFE1642800D1ACE16346002B00D077E316
:104230000C9A802311005B00194089460A990431C9
:104240000D911A4201D000F015FC13005B0600D559
:104250001DE30C9B1B0601D400F07DFC0A9B1B8810
:104260001800031E00D028E30C9A10331100994364
:104270000C91520500D420E3002399460C9B039532
:104280000693434605930B9B0493002302934B46EE
:10429000019316AB22000093514633005846FFF7B6
:1042A000A7F90D9B04000A93E5E66878682800D119
:1042B000DEE1802301371A432DE780239B006878D5
:1042C0001A43013727E7462800D147E107210A9B17
:1042D0000492424607338B43190003920B9A5846C7
:1042E00002920CC9009201930A91220033005146B8
:1042F000FFF7AEFC0400BEE60A9B190008C9894618
:10430000002B00D1E5E021210A4390460EA8844607
:104310001F2262440A9600210F25A446160002E0DF
:1043200020290CD013002C001C4020003730092C11
:1043300000D80738013170541A090F2BF0D86446A1
:104340000A9ED0E031400010D4220020348F0010AB
:10435000788F0010C48F00100A9B04330B93631CEA
:1043600099461D00930700D49EE10A9B220018780D
:1043700051463300D84743464444012B00D88AE2D3
:10438000B946A04637005C4656462A003B00013538
:1043900031002020A0474545F7D1A346B2462C0066
:1043A0003E004F460B9B0A9365E6220033005146C0
:1043B0002520651CD8472C005DE60A9B20CB129374
:1043C0000B9B2878002B7FD1002800D1C1E302236A
:1043D0005B4201339C46AC4461460A9394462B00F1
:1043E0000A0002E0934200D147E1597801330029E5
:1043F000F8D162465B1B0A9380231100DB00194051
:104400000C911A4205D00A9B9C460B9B9C4500D9F7
:104410000A930223190011400D91134200D17CE14F
:10442000002800D161E10C9B002B00D104E10B9B23
:1044300022009946A1442C1B23004C46B1465E46FF
:10444000BB4657469A4609E04B463900551CB047D3
:104450005346585D002800D120E12A009442F3D150
:10446000BA465F46B3464E460D9B002B00D03CE15A
:10447000129B0A93FFE50024DB4B38789B46220011
:10448000002800D0EDE5002481E600230500980017
:10449000C01839004000013740193D78030028005A
:1044A0003038303B0928F2D928000B933D008F1C8F
:1044B0000CE60A9BEF1C01CB0235C143C91708402B
:1044C0000B900A93287801E6002800D140E3013BD5
:1044D0007FE71021100088431131084380460021F6
:1044E000520500D412E743460693082305930B9B1D
:1044F00022000493102303930023029316AB01912F
:104500000093514633005846FFF772F84B460400BB
:104510000A93B0E5202301009943472904D1802361
:104520001B011A4302239843452801D120231A4333
:1045300007210A9B0492424607338B4319000392DA
:104540000B9A584602920CC9009201930A912200DC
:1045500033005146FFF73CF904008CE520231A4351
:10456000B4E602250C928023DB001340642800D0BF
:104570005CE1002B00D048E613008022920013403B
:104580009C466346002B00D0ECE00C9A802311007F
:104590005B00194089460A9904310D911A4200D0F6
:1045A000E2E113005B0600D54EE10C9B1B0600D434
:1045B000BCE20A9B00229B5ED9175A184A4092B26D
:1045C0001000DA0F1292002B09D1802310220C99CF
:1045D000DB000B4091430C91002B00D064E10C9A5E
:1045E0006123920600D54123DBB20EA90A3B1F22AC
:1045F0008C460A9343466244B04614942E004C46BF
:104600000500B946139317000AE03033DBB20134DA
:104610003B55B54200D240E1202C00D13DE10500E0
:104620003100280000F02AFBCBB20929EDD90A9A03
:1046300094466344DBB2EAE73B002D1B3700A946F2
:1046400056465D469A4622003B003100A8474B463D
:104650000134185D0028F6D15346AB46B2463E0001
:104660001F0001E7C0239B00A8781A43EF1C52E506
:10467000C023A8781A43EF1C4DE56246BCE60C2324
:1046800011009943143319430C91530500D5D9E017
:1046900080239B001A4094461025C5E5BA462C009D
:1046A0005F46B3464E46DFE64346012B00D859E24B
:1046B000651E4544B0462E004D46B9465F4600E0B3
:1046C000013522004346514620202C00B847B54210
:1046D000F6D13500BB4646464F4601340A9B2A00B8
:1046E000187851463300D8475CE60A9B2500984568
:1046F00000D8BDE64444B946B04657465E46E41A83
:104700002A004346013539002020B047A542F7D1A1
:10471000B346BA4646464F46AAE60A9A531C904507
:1047200000D81DE243461B199B1A99463B00574689
:10473000AA464D46B1465E469B4622004B46013492
:1047400039002020B047AC42F7D155464346BA461F
:104750005F46B3464E46013328780A93002800D0BE
:1047600061E685E607220A9B0733934301329446AC
:104770009C4462460A921A685B6891469C46DB1725
:104780001093119310981199030053400E936246B1
:104790000B0053400F930E9A0F9B121A8B410E92EF
:1047A0000F936346DB0F4A46129363461A434FD07A
:1047B0000C9A6123920600D54123DBB20A3B0D938C
:1047C0004346002213935B460EA98C4691461593EF
:1047D00033001F3262444E46BB4614942F000E9C99
:1047E0000F9D904699460FE01D3500103032D2B231
:1047F000434601369A550023AB4200D186E1202E74
:1048000000D186E104000D003A00002320002900B9
:1048100000F072FAD2B2092AE8D90D9B9C46624494
:10482000D2B2E5E780231025DB0013400C218A4338
:104830000C92002B00D1ECE4E7E480239B001A40AB
:1048400094469EE61025E0E40A9B1B781A00B7E622
:104850000C9A1023110099430C915205A8D50023FE
:1048600099460C9B03950693434605930B9B049333
:10487000129B02934B46019316AB220000935146C4
:1048800033005846FEF7B4FE0400FFF7F4FB0A9B22
:104890001B781800E5E44C4684E5139B350046463A
:1048A00098464F46A146149C0C9B0395069343469D
:1048B00005930B9B0493129BE8E40C9A61239206E8
:1048C00000D54123DBB20EA90A3B1F228C460A9376
:1048D00043466244A04613974C461700B1461293D4
:1048E0002E00050008E03033DBB201343B55AE4208
:1048F0000ED8202C0CD005003100280000F0BEF9A5
:10490000CBB20929EFD90A9A94466344DBB2ECE7AB
:10491000129B3500139F4E46A14644469846ADE48F
:1049200007220A9B07339343013294469C44624614
:104930000A921A6859681300100009910B4364D158
:104940000C9A1033110099430C9152055DD5002348
:1049500099460C9B03950693434605930B9B049342
:10496000002386E70825FDE50A9B1B68D9175A181E
:104970004A401000DA0F1492002B08D18023102235
:104980000C99DB000B4091430C91002B32D10C9A17
:104990006123920600D54123DBB20A3B0A934346CA
:1049A0000EA989461F22129333004A44A0462E00C6
:1049B0001397644605001700994608E03033DBB2D0
:1049C00001343B55B5420ED3202C0CD005003100EC
:1049D000280000F053F9CBB20929EFD90A9A94467E
:1049E0006344DBB2ECE7129BA446350044464E46D6
:1049F0009846139F0C9B03950693434605930B9B88
:104A00000493149B0293634642E40C9A612392063A
:104A100000D54123DBB20A3B00220D9343460EA989
:104A20008C46914612935B461F326244BB461394F8
:104A30002F004C469046B146099D060014930BE0AA
:104A40003032D2B2434601341A550023AB4273D000
:104A5000202C73D006000D003A00002330002900FE
:104A600000F04AF9D2B2092AEAD90D9B9C46624469
:104A7000D2B2E7E70A9B1B68181E08D18023DB002F
:104A800011001340102291430C91002B32D10C9A4B
:104A90006123920600D54123DBB20A3B0A934346C9
:104AA0000EA989461F22129333004A44A0462E00C5
:104AB0001397644605001700994608E03033DBB2CF
:104AC00001343B55AE420ED8202C0CD005003100ED
:104AD000280000F0D3F8CBB20929EFD90A9A9446FE
:104AE0006344DBB2ECE7129BA446350044464E46D5
:104AF0009846139F0C9B03950693434605930B9B87
:104B00000493002302936346FFF7C2FBA74200D839
:104B100075E6139B159A98464B460E940F95B14631
:104B20003D001E005F46149C93469AE60A9B1B6854
:104B3000D9175A184A4043E5B74289D9129B3D001C
:104B40009846149B4E465F46A1469B46139C00E741
:104B500000230A9350E40A9B1B681800FFF781FBAF
:104B60000A93FBE525004C46B8E50A00FBE4C04685
:104B700000B585B003910121029000930348130012
:104B80004A4202A9FFF754FA05B000BDC137001030
:104B900010B5094A0300146884B0002C08D0012223
:104BA00000910648524203A9A047012004B010BD5D
:104BB00001F078F80020F9E7D4220020B137001086
:104BC00001480421014B1847900F0020F14B0010C1
:104BD000142310B50100188804331B88984710BDB2
:104BE000162310B50100188802331B88984710BDA2
:104BF000F0B5C64600B5002916D0142304000125DF
:104C000098461827890046184346216818883B882B
:104C1000984701C4431E984140420540A642F3D143
:104C2000280080BCB846F0BD0125F9E7124A936F11
:104C30009B0815D29066D166002905D0FFE7FFE7F3
:104C4000FFE7516F106F704704B580210906C21746
:104C50005140002800D0C84303F0EAFF002104BD02
:104C6000F0B5146E556E576F166FFFF7E3FF1466BD
:104C7000556657671667F0BD000000D0114A936F64
:104C80009B0813D210665166002905D0FFE7FFE7A5
:104C9000FFE7516F106F704704B5002801D0002066
:104CA000C04303F0C5FF002104BDC046F0B5146E3B
:104CB000556E576F166FFFF7E5FF14665566576719
:104CC0001667F0BD000000D094464A4A926F9208E1
:104CD000624601D228E0C046F0B5464E346E756E8D
:104CE000776F366F00F020F89446424A1466556696
:104CF000576716676246F0BD94463E4A926F920827
:104D0000624601D254E0C046F0B53A4E346E756E3C
:104D1000776F366F00F04CF89446364A1466556645
:104D2000576716676246F0BD002B24DB11D00029BF
:104D30003EDA00B5C943404200D1013100F038F8F5
:104D4000C943404200D10131DB43524200D101331B
:104D500000BD002AEBD1002801D1002905D0002098
:104D6000C90FC90701D1C043410800B503F058FF7E
:104D70000022002300BD00B500290ADBDB435242BC
:104D800000D1013300F014F8C943404200D1013191
:104D900000BDC943404200D10131DB43524200D142
:104DA000013300F005F8DB43524200D1013300BD6E
:104DB000002923D1002B18D1002A0CD0BC460D4F5E
:104DC00038667A6600210023FFE7FFE7FFE77A6F86
:104DD000386F67467047002801D00748010000B5CA
:104DE00003F01EFF0022002300BD02000B00002084
:104DF00000217047000000D0FFFFFFFF002B00D014
:104E0000BFE0130C28D1002AE7D080B4114F3966D7
:104E10007A66FFE7FFE730B4040C7B6F396F1B0441
:104E200023433B667A66FFE7FFE7FFE7C04684B2AD
:104E30007B6F3D6F1B0423433B667A66FFE7FFE70A
:104E4000C04600232C042D0C7A6F386F001969417D
:104E5000B0BC7047000000D0F0B594460025140E99
:104E600001D112020835140F01D112010435940F3B
:104E700001D192000235D40F01D152000135D40B7B
:104E80000134254F7C66254C3C660E0C93B2FFE73F
:104E9000FFE7FFE73C6F6643360C7703BE4673437C
:104EA000DF0B5B04C01AB941130C7343DB18C91A3A
:104EB000CE086643360CB64493B273431F0F1B01F2
:104EC000C01AB941130C73431F0B1B05C01AB9411B
:104ED000860D8F023E436643360C092D24DB520AB1
:104EE0007243801A7703460A6643360C16235B1B0F
:104EF000DE40DF40BF1964466643821B70460435BE
:104F000006330100D940A840C01900D30131A242A4
:104F100006D20023F0BD0000000000D0FFFFFFFF1D
:104F2000121B0130F3D3F1E709277F1BFE406446D3
:104F3000A2B27243801A00D20139220C7243130CC0
:104F40001204821A99410B00704604351337010090
:104F5000F940A840801900D30131002B02D1A242B0
:104F60000AD2F0BD013000D30131121BFAD2013B4D
:104F7000F8D1A24200D2F0BD013000D30131121BA2
:104F8000F7E7F0B51C0C00D080E00CB400251C0A3B
:104F900004D11B02160E3343120208351C0B04D138
:104FA0001B01160F3343120104359C0B04D19B00E7
:104FB000960F334392000235DC0B02D192185B410D
:104FC00001351C00971864410134464F7C66464CFD
:104FD0003C660E0CFFE7FFE7FFE7C0463C6F664309
:104FE000360C7703BE4697B27743C01B00D2013917
:104FF000C01B00D201399FB27743C91BC91B170CD4
:1050000077437E04FF0B801BB941CE086643360C04
:105010000C2D33DBB644120B1F053A431B0B97B222
:105020007743C01B00D201399FB27743C91B170CCD
:1050300077433E043F0C801BB941860D8F023E43EF
:10504000664329277F1BFE400C3D7746AF40BF19C2
:1050500030BCA2B2ABB272437343801A9941220CA6
:105060007243130C1204801A994102000B0001379D
:10507000001BA941F9D2781E0021F0BD0C277F1B2F
:10508000FE4077467F0BAF40FF19E0E700245D1C30
:1050900007D0144F7D663966FFE7FFE7FFE7FFE7BC
:1050A0003C6F95B29EB265436643401BB141150CFF
:1050B0001E0C6543664336042F0C3E432D04401BF3
:1050C000B141994204D202000B0020000021F0BD42
:1050D00001D19042F7D3801A994101349942F2D319
:1050E000F6E70000000000D0FFFFFFFF484041400E
:1050F000484018B41B4B5B68FC46019308BD04DFB5
:10510000B753001018B4174B1B68FC46019308BD39
:1051100000DFC15300109446134A926F920809D2DF
:10512000624618B40F4BDB68FC46019308BD0CDFE8
:10513000795600100C4AF0B5146E556E576F166F05
:105140006246FFF7EEFF084A146655665767166712
:10515000F0BD18B4034B9B68FC46019308BD08DF03
:105160001D55001054230020000000D0FFB5504012
:105170004240504059404B40594000E0FFB5154F68
:105180004C00640D03D0BC4204D10C0314D80020A1
:10519000090D09055C00640D03D0BC4204D11C0359
:1051A0000AD800221B0D1B0501264B4009D44B4099
:1051B00003D58B4200D18242FFBD9942FCD190427F
:1051C000FFBD0B43DB1803431343F5D0C943491814
:1051D000FFBD0000FF07000000B5FFF7CFFF8041D3
:1051E00000BDC04600B5FFF7C9FF01D9002000BDD2
:1051F000012000BD00B5FFF7B9FF01D9002000BDB7
:10520000012000BD00B5FFF7B1FF804100BD0120C6
:1052100040054A00121804D85A00121801D800207C
:1052200070470120704700207047000000210028CF
:1052300005D17047C1174840401AFAD0C90713B5C5
:10524000064B1B6898470CBC441CA2401005120B6F
:105250000349091B09051943114310BD18230020F8
:105260001F04000010B54C00620D8023D218DB0033
:10527000D21A5B057E2A10DD9E3A13DACC17090399
:10528000490819435242D140640001341532202AA2
:1052900005DAD0400843604310BD002010BD084629
:1052A000604310BDC80FC018013810BD18B4044BBE
:1052B0005B6AFC46019308BD24DF295800100000FA
:1052C00054230020132370B51D78012D15D010DD57
:1052D0002748FFF785FC274C01008022200000F0C2
:1052E00083FB022D06D02448FFF772FC234B186085
:1052F00070BD204C224AA264F5E72E001D4C204AC6
:10530000A3085B421E401D422FD0330022602020A4
:10531000B1006118801B0A604A608A60CA600A6135
:105320004A618A61CA610A624A628A62CA620A631F
:105330004A638A63CA630A644A648A64CA640A65FF
:105340004A658A65CA650A664A668A66CA660A67DF
:105350004A674008102803D18A67CA67A264C2E777
:105360001E339B00E250A264BDE70023CFE7C04696
:1053700053440000542300204C3300001823002025
:105380008553001007B5604601880A0A0230DF2AFB
:10539000FAD1C9B2820804D30288408800041043BD
:1053A00000E00068014A5050039007BD54230020DC
:1053B0000FB403BC0CBCF0B50124E407634000E06B
:1053C000F0B50C0DCF0F661E3605891B640503D39F
:1053D000C943404200D30131640D03D0661CF60A74
:1053E00007D0E41B00207F00791C89078912803CCC
:1053F00024031D0DDF0F6E1E36059B1B6D0503D3A9
:10540000DB43524200D301336D0D03D06E1CF60A0C
:1054100007D0ED1B00227F007B1C9B079B12803D69
:105420002D032F1B661B58D4A446202E46DA2037A6
:105430001400BC401D00BD40F24033412A43801897
:105440005941CB0F05D0C943C043002264425041AB
:10545000514162464D0D28D10D0D07D100281FD0B6
:10546000241940414941013A0D0DF9D0640006D399
:10547000013000D30131002C01D140084000013A35
:105480000BD4941CE40A04D112051144DB0719441F
:10549000F0BDD907204B194300E0D9070020F0BD2B
:1054A0000029DDD1002CDBD1F0BD0132C607400858
:1054B000CD0728434908002EE1D0D9E73C2E29DA50
:1054C000203E40371400BC4000D00124F240144379
:1054D0001A00BB401C43D317ACE7AC46202F08DAB8
:1054E00020360400B4400D00B540F840394128434F
:1054F000A5E73C2F0CDA203F40360400B44000D032
:105500000124F84004430800B1400C43C117EAE706
:1055100010001900002494E70000F07FF0B50C0D96
:10552000661E3605891BE60A6405640D02D0651CFB
:10553000ED0A04D0002001210905803C2403A44683
:105540001C0D671E3F05DB1BE70A6405640D02D0D6
:10555000651CED0A04D0002201231B05803C2403B6
:105560007740644497B484B296B27443070C7E4388
:10557000150C6F4380B26843361802D30120000433
:105580003F183004350C00197D41844688B29AB228
:1055900050430C0C62431F0C7C438EB27E43921925
:1055A00002D301263604A4191604170C36186741D5
:1055B00001BC81B29AB25143040C62431B0C5C43A0
:1055C00080B25843121802D301200004241810049A
:1055D000130C401863412D185E410020474106BC62
:1055E00088B293B258430C0C6343120C544389B2F3
:1055F00051435B1802D301210904641819041A0CE1
:10560000091862416D1856410020474118BCF90243
:10561000720D1143F0026A0D1043ED020A0D03D121
:105620006D1940414941013B124E9B1B7600B3422C
:105630000ED26D0007D30130002671416646354316
:1056400001D1400840001B05C918E4072144F0BD02
:105650000BDA013306D1013004D101314F0D01D0F5
:105660004908F2E7E1070020F0BD013631050020CE
:10567000EBE70000FF030000F0B51C0D671E3F05BF
:10568000DB1BE70A6405640D02D0661CF60A04D031
:10569000002201231B05803C2403D0252D06002673
:1056A000F6432E661E096E66CE0FF619B446490003
:1056B0004F0D02D07E1CF60A03D000200021403F8F
:1056C0003F033E1BB600B444013F7F05C91B490898
:1056D0002E6F013676089C02950D25437543ED1318
:1056E0007543AD1301356D10F603761B0CB4CC0277
:1056F000450D2C43A2B2B3B25A43270C7B43350C61
:105700006F43A4B26C431B1902D3012424043F1934
:105710001C041D0CA4187D4124196D41009A91B2FE
:10572000ACB26143170C7C432B0C5F4392B25A43DB
:10573000A41802D301221204BF182204230C521809
:105740007B41019C6C431B19520ED9010A43440151
:10575000A01A81B2B2B2514303145A43360C7343B8
:1057600087B27743D617D21900277E4136049B199A
:105770001704160C7F185E417316ED18F30100260E
:1057800080337541A90F06D16400690AE8055B0AF8
:10579000184309D22FE00422944480337541A90AAA
:1057A000A8059B0A184326D3404149412404009A86
:1057B000019B0D005543641B4343E41A95B286B226
:1057C0007543170C7E43030C5F4392B25A43B618DD
:1057D00002D301221204BF183204330C52197B4148
:1057E00052429C41002C02D4002201305141400819
:1057F000CA071043490802B06246D7079210084B07
:10580000D218084B9A4203D212058918C919F0BD63
:105810000020002A01DC3900F0BD01331905F5E74D
:10582000FD030000FE070000002200B5203200F05A
:1058300004F8080000BD000000220B150AD410B5C2
:10584000944600F031F81414013400DA0021CB172B
:10585000144C20470020002170476244343A0CD495
:105860000C2A07DA04009140904052422032D44082
:10587000214310BDD843D94310BD203207D40C4674
:105880009440524220321141D040204310BD0800C4
:10589000C917203203D452422032104110BD1800E3
:1058A000190010BD5B5800100A0DCC0F531E1B05CC
:1058B000C91A520503D3C943404200D30131520DE6
:1058C00003D0531CDB0A07D0121B00206400611CAC
:1058D00089078912803A1203014BD21A70470000DF
:1058E000FF03000051434343C9188C46110C83B297
:1058F0004B4310B4040C614392B280B250436243F4
:105900001C041B0C001910BC59411304120CC018C4
:105910005141614470470000132310B512481C78B0
:10592000FFF75EF90100012C0AD003DD80220F4849
:1059300000F05AF80E48FFF74BF90E4B186010BDF7
:105940000A4C5422200000F04FF80B4B6365A3650E
:10595000E36523666366A366E36623676367A367FD
:10596000E3672362E361E5E7534600005424002027
:105970004C330000182300207D59001007B5604605
:1059800001880A0A0230DF2AFAD1C9B2820804D398
:10599000028840880004104300E00068014A50502B
:1059A000039007BD5424002010B5040002F054FCFD
:1059B000002804D0034B04199C4200D810BD0248B3
:1059C000FDF78EFD000004206891001001480421BD
:1059D000014B1847A00F0020F14B0010014B1B6832
:1059E00018470000A00F0020014B5B68184700001B
:1059F000A00F0020030010B508001B681100984795
:105A000010BDC046F0B54F464646D646C0B5437DAC
:105A100007000E001500002B3DD000200024002AB6
:105A200034DD4B1E98461E4B99460DE043461B5DE8
:105A30000D3B5A425341621C9246325DDBB20A2A48
:105A40000AD0554517D05446002CEFD1621C92461F
:105A5000325D3B7D0A2AF4D1002BF2D13B68A04293
:105A600003DA211A301898473B68484602219847C4
:105A700050465545E7D1A84203DA291A3B68301849
:105A80009847335D0D3B5A4253413B75E0BCBA46E3
:105A9000B146A846F0BD0368110030009847F5E70D
:105AA000D8910010F0B5C6460C000968060000B594
:105AB000802906D04B1C23606418267180BCB84630
:105AC000F0BD0F4B1D68002D16D0231D98460D4FBD
:105AD00002E02D69002D0FD02B68002BF9D03B6818
